:020000040808EA
:10000000000005208D020808DD020808DD0208084E
:10001000DD020808DD020808DD0208080000000013
:10002000000000000000000000000000DD020808E1
:10003000DD02080800000000DD020808DD020808F3
:10004000DD020808DD020808DD020808DD020808F4
:10005000DD020808DD020808DD020808DD020808E4
:10006000DD020808DD020808DD020808DD020808D4
:10007000DD020808DD020808DD020808DD020808C4
:10008000DD020808DD020808DD020808DD020808B4
:10009000DD020808DD020808DD020808DD020808A4
:1000A000DD020808DD020808DD020808DD02080894
:1000B000DD020808DD020808DD020808DD02080884
:1000C000DD020808DD020808DD020808DD02080874
:1000D000DD020808DD020808DD020808DD02080864
:1000E000DD020808DD020808DD020808DD02080854
:1000F000DD020808DD020808DD020808DD02080844
:10010000DD020808DD020808DD020808DD02080833
:10011000DD020808DD020808DD020808DD02080823
:10012000DD020808DD020808DD020808DD02080813
:10013000DD020808DD020808DD020808DD02080803
:10014000DD020808DD020808DD020808DD020808F3
:10015000DD020808DD020808DD020808DD020808E3
:10016000DD020808DD020808DD020808DD020808D3
:10017000DD020808DD020808DD020808DD020808C3
:10018000DD020808DD020808DD020808DD020808B3
:10019000DD020808DD020808DD020808DD020808A3
:0C01A000DD020808DD020808DD02080886
:1001AC0010B5054C237833B9044B13B10448AFF3A5
:1001BC0000800123237010BD00000020000000000F
:1001CC002803080808B5034B1BB103490348AFF3D8
:1001DC00008008BD0000000004000020280308086F
:1001EC0080B483B000AF786000BF7B685A1E7A6021
:1001FC00002BFAD100BF00BF0C37BD465DF8047B65
:10020C007047000080B500AF0C4B0222DA640C4B37
:10021C004FF080521A600A4B5B69094A43F48043E1
:10022C0053610848FFF7DCFF054B5B69044B002268
:10023C005A610448FFF7D4FF00BF80BD0010024094
:10024C0000040048801A060080B500AFFFF7DAFF03
:10025C00FCE7000080B400AF074B084A9A60064BDD
:10026C00D3F88830044A43F47003C2F8883000BFD6
:10027C00BD465DF8047B704700ED00E00000080807
:10028C000D488546FFF7E6FF0C480D490D4A002343
:10029C0002E0D458C4500433C4188C42F9D30A4A2F
:1002AC000A4C002301E013600432A242FBD300F09D
:1002BC0011F8FFF7C9FFFEE7000005200000002041
:1002CC000000002048030808000000201C0000204B
:1002DC00FEE7000070B50D4D0D4C641BA4100026FC
:1002EC00A64209D10B4D0C4C00F018F8641BA4105D
:1002FC000026A64205D170BD55F8043B984701363F
:10030C00EEE755F8043B98470136F2E7400308083E
:10031C00400308084003080844030808F8B500BF68
:10032C00F8BC08BC9E467047F8B500BFF8BC08BCCA
:04033C009E46704722
:04034000D1010808D7
:04034400AD010808F7
:040000050808028D58
:00000001FF
