:020000040804EE
:10000000000005208D020408DD020408DD0204085A
:10001000DD020408DD020408DD020408000000001F
:10002000000000000000000000000000DD020408E5
:10003000DD02040800000000DD020408DD020408FF
:10004000DD020408DD020408DD020408DD02040804
:10005000DD020408DD020408DD020408DD020408F4
:10006000DD020408DD020408DD020408DD020408E4
:10007000DD020408DD020408DD020408DD020408D4
:10008000DD020408DD020408DD020408DD020408C4
:10009000DD020408DD020408DD020408DD020408B4
:1000A000DD020408DD020408DD020408DD020408A4
:1000B000DD020408DD020408DD020408DD02040894
:1000C000DD020408DD020408DD020408DD02040884
:1000D000DD020408DD020408DD020408DD02040874
:1000E000DD020408DD020408DD020408DD02040864
:1000F000DD020408DD020408DD020408DD02040854
:10010000DD020408DD020408DD020408DD02040843
:10011000DD020408DD020408DD020408DD02040833
:10012000DD020408DD020408DD020408DD02040823
:10013000DD020408DD020408DD020408DD02040813
:10014000DD020408DD020408DD020408DD02040803
:10015000DD020408DD020408DD020408DD020408F3
:10016000DD020408DD020408DD020408DD020408E3
:10017000DD020408DD020408DD020408DD020408D3
:10018000DD020408DD020408DD020408DD020408C3
:10019000DD020408DD020408DD020408DD020408B3
:0C01A000DD020408DD020408DD02040892
:1001AC0010B5054C237833B9044B13B10448AFF3A5
:1001BC0000800123237010BD00000020000000000F
:1001CC002803040808B5034B1BB103490348AFF3DC
:1001DC00008008BD00000000040000202803040873
:1001EC0080B483B000AF786000BF7B685A1E7A6021
:1001FC00002BFAD100BF00BF0C37BD465DF8047B65
:10020C007047000080B500AF0C4B0422DA640C4B35
:10021C004FF480421A600A4B5B69094A43F0800331
:10022C0053610848FFF7DCFF054B5B69044B002268
:10023C005A610448FFF7D4FF00BF80BD0010024094
:10024C0000080048801A060080B500AFFFF7DAFFFF
:10025C00FCE7000080B400AF074B084A9A60064BDD
:10026C00D3F88830044A43F47003C2F8883000BFD6
:10027C00BD465DF8047B704700ED00E0000004080B
:10028C000D488546FFF7E6FF0C480D490D4A002343
:10029C0002E0D458C4500433C4188C42F9D30A4A2F
:1002AC000A4C002301E013600432A242FBD300F09D
:1002BC0011F8FFF7C9FFFEE7000005200000002041
:1002CC000000002048030408000000201C0000204F
:1002DC00FEE7000070B50D4D0D4C641BA4100026FC
:1002EC00A64209D10B4D0C4C00F018F8641BA4105D
:1002FC000026A64205D170BD55F8043B984701363F
:10030C00EEE755F8043B98470136F2E74003040842
:10031C00400304084003040844030408F8B500BF74
:10032C00F8BC08BC9E467047F8B500BFF8BC08BCCA
:04033C009E46704722
:04034000D1010408DB
:04034400AD010408FB
:040000050804028D5C
:00000001FF
